:020000040800F2
:1000000000500020C93F00083311000835110008D6
:1000100037110008391100083B11000800000000EA
:100020000000000000000000000000003D1100087A
:100030003F110008000000004111000843110008B2
:10004000114000081140000811400008114000084C
:10005000114000081140000811400008114000083C
:10006000114000081140000811400008114000082C
:10007000114000081140000811400008114000081C
:10008000114000081140000811400008114000080C
:1000900011400008114000081140000811400008FC
:1000A00011400008114000081140000811400008EC
:1000B00011400008114000081140000811400008DC
:1000C00011400008114000081140000811400008CC
:1000D000114000084D110008114000085D11000892
:1000E0001140000811400008114000080000000005
:1000F0000000000000000000000000000000000000
:0C01000000000000000000005FF808F1A3
:1001100010B5054C237833B9044B13B10448AFF341
:1001200000800123237010BD140100200000000096
:100130006054000808B5034B1BB103490348AFF3F3
:10014000008008BD00000000180100206054000875
:1001500081F0004102E000BF83F0004330B54FEA78
:1001600041044FEA430594EA050F08BF90EA020FE5
:100170001FBF54EA000C55EA020C7FEA645C7FEA78
:10018000655C00F0E2804FEA5454D4EB5555B8BF9B
:100190006D420CDD2C4480EA020281EA030382EA0C
:1001A000000083EA010180EA020281EA0303362D9E
:1001B00088BF30BD11F0004F4FEA01314FF4801C71
:1001C0004CEA113102D0404261EB410113F0004F83
:1001D0004FEA03334CEA133302D0524263EB43033A
:1001E00094EA050F00F0A780A4F10104D5F1200ED8
:1001F0000DDB02FA0EFC22FA05F2801841F1000133
:1002000003FA0EF2801843FA05F359410EE0A5F106
:1002100020050EF1200E012A03FA0EFC28BF4CF037
:10022000020C43FA05F3C01851EBE37101F00045ED
:1002300007D54FF0000EDCF1000C7EEB00006EEBFA
:100240000101B1F5801F1BD3B1F5001F0CD3490884
:100250005FEA30004FEA3C0C04F101044FEA4452DB
:1002600012F5800F80F09A80BCF1004F08BF5FEA62
:10027000500C50F1000041EB045141EA050130BD42
:100280005FEA4C0C404141EB0101013C28BFB1F554
:10029000801FE9D291F0000F04BF01460020B1FA9F
:1002A00081F308BF2033A3F10B03B3F120020CDA72
:1002B0000C3208DD02F1140CC2F10C0201FA0CF050
:1002C00021FA02F10CE002F11402D8BFC2F1200CB5
:1002D00001FA02F120FA0CFCDCBF41EA0C0190406B
:1002E000E41AA2BF01EB0451294330BD6FEA0404B4
:1002F0001F3C1CDA0C340EDC04F11404C4F120029F
:1003000020FA04F001FA02F340EA030021FA04F3B0
:1003100045EA030130BDC4F10C04C4F1200220FA07
:1003200002F001FA04F340EA0300294630BD21FA45
:1003300004F0294630BD94F0000F83F4801306BF0B
:1003400081F480110134013D4EE77FEA645C18BFFF
:100350007FEA655C29D094EA050F08BF90EA020F96
:1003600005D054EA000C04BF1946104630BD91EA8E
:10037000030F1EBF0021002030BD5FEA545C05D191
:100380004000494128BF41F0004130BD14F58004D0
:100390003CBF01F5801130BD01F0004545F0FE4144
:1003A00041F470014FF0000030BD7FEA645C1ABF79
:1003B000194610467FEA655C1CBF0B46024650EAB0
:1003C000013406BF52EA033591EA030F41F40021DC
:1003D00030BD00BF90F0000F04BF0021704730B562
:1003E0004FF4806404F132044FF000054FF0000137
:1003F00050E700BF90F0000F04BF0021704730B5F8
:100400004FF4806404F1320410F0004548BF4042CC
:100410004FF000013EE700BF42004FEAE2014FEA21
:1004200031014FEA02701FBF12F07F4393F07F4FFC
:1004300081F06051704732F07F4208BF704793F0FF
:100440007F4F04BF41F40021704730B54FF4607412
:1004500001F0004521F000411CE700BF50EA010215
:1004600008BF704730B54FF000050AE050EA0102BE
:1004700008BF704730B511F0004502D5404261EB2E
:1004800041014FF4806404F132045FEA915C3FF46F
:10049000D8AE4FF003025FEADC0C18BF03325FEA0C
:1004A000DC0C18BF033202EBDC02C2F1200300FABD
:1004B00003FC20FA02F001FA03FE40EA0E0021FAE2
:1004C00002F11444BDE600BF70B54FF0FF0C4CF4D0
:1004D000E06C1CEA11541DBF1CEA135594EA0C0F82
:1004E00095EA0C0F00F0DEF82C4481EA030621EABD
:1004F0004C5123EA4C5350EA013518BF52EA0335F8
:1005000041F4801143F4801338D0A0FB02CE4FF0A9
:100510000005E1FB02E506F00042E0FB03E54FF0D9
:100520000006E1FB03569CF0000F18BF4EF0010ED1
:10053000A4F1FF04B6F5007F64F5407404D25FEACD
:100540004E0E6D4146EB060642EAC62141EA555180
:100550004FEAC52040EA5E504FEACE2EB4F1FD0CC2
:1005600088BFBCF5E06F1ED8BEF1004F08BF5FEA40
:10057000500E50F1000041EB045170BD06F00046F2
:1005800046EA010140EA020081EA0301B4EB5C049F
:10059000C2BFD4EB0C0541EA045170BD41F4801197
:1005A0004FF0000E013C00F3AB8014F1360FDEBFBC
:1005B000002001F0004170BDC4F10004203C35DA98
:1005C0000C341BDC04F11404C4F1200500FA05F31B
:1005D00020FA04F001FA05F240EA020001F00042BC
:1005E00021F0004110EBD37021FA04F642EB060132
:1005F0005EEA430E08BF20EAD37070BDC4F10C045C
:10060000C4F1200500FA04F320FA05F001FA04F21F
:1006100040EA020001F0004110EBD37041F100010B
:100620005EEA430E08BF20EAD37070BDC4F1200516
:1006300000FA05F24EEA020E20FA04F301FA05F27E
:1006400043EA020321FA04F001F0004121FA04F226
:1006500020EA020000EBD3705EEA430E08BF20EAF6
:10066000D37070BD94F0000F0FD101F00046400030
:1006700041EB010111F4801F08BF013CF7D041EAB2
:10068000060195F0000F18BF704703F000465200B6
:1006900043EB030313F4801F08BF013DF7D043EA87
:1006A0000603704794EA0C0F0CEA135518BF95EA3D
:1006B0000C0F0CD050EA410618BF52EA4306D1D1C4
:1006C00081EA030101F000414FF0000070BD50EAE3
:1006D000410606BF1046194652EA430619D094EA6D
:1006E0000C0F02D150EA013613D195EA0C0F05D157
:1006F00052EA03361CBF104619460AD181EA0301AB
:1007000001F0004141F0FE4141F470014FF0000062
:1007100070BD41F0FE4141F4780170BD70B54FF0FD
:10072000FF0C4CF4E06C1CEA11541DBF1CEA13557D
:1007300094EA0C0F95EA0C0F00F0A7F8A4EB05045F
:1007400081EA030E52EA03354FEA013100F0888056
:100750004FEA03334FF0805545EA131343EA12631F
:100760004FEA022245EA111545EA10654FEA0026D4
:100770000EF000419D4208BF964244F1FD0404F58D
:10078000407402D25B084FEA3202B61A65EB0305E9
:100790005B084FEA32024FF480104FF4002CB6EBA6
:1007A000020E75EB030E22BFB61A754640EA0C0026
:1007B0005B084FEA3202B6EB020E75EB030E22BF66
:1007C000B61A754640EA5C005B084FEA3202B6EBA7
:1007D000020E75EB030E22BFB61A754640EA9C0066
:1007E0005B084FEA3202B6EB020E75EB030E22BF36
:1007F000B61A754640EADC0055EA060E18D04FEAF4
:10080000051545EA16754FEA06164FEAC30343EA93
:1008100052734FEAC2025FEA1C1CC0D111F4801F60
:100820000BD141EA00014FF000004FF0004CB6E759
:1008300011F4801F04BF01430020B4F1FD0C88BFF8
:10084000BCF5E06F3FF6AFAEB5EB030C04BFB6EB03
:10085000020C5FEA500C50F1000041EB045170BDF6
:100860000EF0004E4EEA113114EB5C04C2BFD4EB23
:100870000C0541EA045170BD41F480114FF0000EA7
:10088000013C90E645EA060E8DE60CEA135594EA23
:100890000C0F08BF95EA0C0F3FF43BAF94EA0C0F26
:1008A0000AD150EA01347FF434AF95EA0C0F7FF49B
:1008B00025AF104619462CE795EA0C0F06D152EAEF
:1008C00003353FF4FDAE1046194622E750EA4106D3
:1008D00018BF52EA43067FF4C5AE50EA41047FF4E4
:1008E0000DAF52EA43057FF4EBAE12E74FF0FF3C49
:1008F00006E000BF4FF0010C02E000BF4FF0010C1A
:100900004DF804CD4FEA410C7FEA6C5C4FEA430C92
:1009100018BF7FEA6C5C1BD001B050EA410C0CBFE1
:1009200052EA430C91EA030F02BF90EA020F002043
:10093000704710F1000F91EA030F58BF994208BFAA
:1009400090422CBFD8176FEAE37040F00100704767
:100950004FEA410C7FEA6C5C02D150EA013C07D1BE
:100960004FEA430C7FEA6C5CD6D152EA033CD3D009
:100970005DF8040B704700BF8446104662468C4603
:100980001946634600E000BF01B5FFF7B7FF002836
:1009900048BF10F1000F01BD4DF808EDFFF7F4FF5F
:1009A0000CBF012000205DF808FB00BF4DF808EDEA
:1009B000FFF7EAFF34BF012000205DF808FB00BF0D
:1009C0004DF808EDFFF7E0FF94BF012000205DF82F
:1009D00008FB00BF4DF808EDFFF7CEFF94BF0120E4
:1009E00000205DF808FB00BF4DF808EDFFF7C4FFDD
:1009F00034BF012000205DF808FB00BF4FEA410230
:100A0000B2F1E04324BFB3F5001CDCF1FE5C0DD96C
:100A100001F0004C4FEAC0024CEA5070B2F1004FB6
:100A200040EB830008BF20F00100704711F0804FB9
:100A300021D113F13872BCBF01F00040704741F47E
:100A400080114FEA5252C2F11802C2F1200C10FA82
:100A50000CF320FA02F018BF40F001004FEAC12366
:100A60004FEAD32303FA0CFC40EA0C0023FA02F30A
:100A70004FEA4303CCE77FEA625307D150EA0133E0
:100A80001EBF4FF0FE4040F44000704701F00040B0
:100A900040F0FE4040F40000704700BF80F000408E
:100AA00002E000BF81F0004142001FBF5FEA410346
:100AB00092EA030F7FEA226C7FEA236C6AD04FEA46
:100AC0001262D2EB1363C1BFD2184140484041408B
:100AD000B8BF5B42192B88BF704710F0004F40F43D
:100AE000000020F07F4018BF404211F0004F41F459
:100AF000000121F07F4118BF494292EA030F3FD025
:100B0000A2F1010241FA03FC10EB0C00C3F1200337
:100B100001FA03F100F0004302D5494260EB4000C6
:100B2000B0F5000F13D3B0F1807F06D340084FEA31
:100B3000310102F10102FE2A51D2B1F1004F40EB26
:100B4000C25008BF20F0010040EA0300704749008E
:100B500040EB0000013A28BFB0F5000FEDD2B0FA2B
:100B600080FCACF1080CB2EB0C0200FA0CF0AABF4E
:100B700000EBC25052421843BCBFD04018437047EC
:100B800092F0000F81F4000106BF80F400000132F2
:100B9000013BB5E74FEA41037FEA226C18BF7FEAC9
:100BA000236C21D092EA030F04D092F0000F08BF0B
:100BB0000846704790EA010F1CBF0020704712F0F2
:100BC0007F4F04D1400028BF40F00040704712F131
:100BD00000723CBF00F50000704700F0004343F096
:100BE000FE4040F4000070477FEA226216BF0846CC
:100BF0007FEA23630146420206BF5FEA412390EA8F
:100C0000010F40F4800070474FF0000304E000BF84
:100C100010F0004348BF40425FEA000C08BF704735
:100C200043F0964301464FF000001CE050EA0102F9
:100C300008BF70474FF000030AE000BF50EA01020E
:100C400008BF704711F0004302D5404261EB4101FB
:100C50005FEA010C02BF84460146002043F0B64320
:100C600008BFA3F18053A3F50003BCFA8CF2083A45
:100C7000A3EBC25310DB01FA02FC634400FA02FC4E
:100C8000C2F12002BCF1004F20FA02F243EB020055
:100C900008BF20F00100704702F1200201FA02FCB7
:100CA000C2F1200250EA4C0021FA02F243EB0200AA
:100CB00008BF20EADC7070474FF0FF0C1CEAD052EE
:100CC0001EBF1CEAD15392EA0C0F93EA0C0F6FD0AF
:100CD0001A4480EA010C400218BF5FEA41211ED08D
:100CE0004FF0006343EA501043EA5111A0FB013179
:100CF0000CF00040B1F5000F3EBF490041EAD3714E
:100D00005B0040EA010062F17F02FD2A1DD8B3F1C9
:100D1000004F40EBC25008BF20F00100704790F038
:100D2000000F0CF0004C08BF49024CEA502040EA8A
:100D300051207F3AC2BFD2F1FF0340EAC250704750
:100D400040F400004FF00003013A5DDC12F1190F8E
:100D5000DCBF00F000407047C2F10002410021FA00
:100D600002F1C2F1200200FA02FC5FEA310040F118
:100D7000000053EA4C0308BF20EADC70704792F091
:100D8000000F00F0004C02BF400010F4000F013AC9
:100D9000F9D040EA0C0093F0000F01F0004C02BFC4
:100DA000490011F4000F013BF9D041EA0C018FE733
:100DB0000CEAD15392EA0C0F18BF93EA0C0F0AD039
:100DC00030F0004C18BF31F0004CD8D180EA01005F
:100DD00000F00040704790F0000F17BF90F0004FF8
:100DE000084691F0000F91F0004F14D092EA0C0FDA
:100DF00001D142020FD193EA0C0F03D14B0218BF6D
:100E0000084608D180EA010000F0004040F0FE40B2
:100E100040F40000704740F0FE4040F4400070474E
:100E20004FF0FF0C1CEAD0521EBF1CEAD15392EACD
:100E30000C0F93EA0C0F69D0A2EB030280EA010CBD
:100E400049024FEA402037D04FF0805343EA111156
:100E500043EA10130CF000408B4238BF5B0042F1B4
:100E60007D024FF4000C8B4224BF5B1A40EA0C0059
:100E7000B3EB510F24BFA3EB510340EA5C00B3EB8B
:100E8000910F24BFA3EB910340EA9C00B3EBD10F79
:100E900024BFA3EBD10340EADC001B0118BF5FEACB
:100EA0001C1CE0D1FD2A3FF650AF8B4240EBC250F4
:100EB00008BF20F0010070470CF0004C4CEA5020B5
:100EC0007F32C2BFD2F1FF0340EAC250704740F404
:100ED00000004FF00003013A37E792F0000F00F0F6
:100EE000004C02BF400010F4000F013AF9D040EA74
:100EF0000C0093F0000F01F0004C02BF490011F408
:100F0000000F013BF9D041EA0C0195E70CEAD153FF
:100F100092EA0C0F08D142027FF47DAF93EA0C0FE6
:100F20007FF470AF084676E793EA0C0F04D14B02CA
:100F30003FF44CAF08466EE730F0004C18BF31F07C
:100F4000004CCAD130F000427FF45CAF31F0004376
:100F50007FF43CAF5FE700BF4FF0FF3C06E000BF0F
:100F60004FF0010C02E000BF4FF0010C4DF804CD32
:100F70004FEA40024FEA41037FEA226C18BF7FEA42
:100F8000236C11D001B052EA530C18BF90EA010F44
:100F900058BFB2EB030088BFC81738BF6FEAE170D3
:100FA00018BF40F0010070477FEA226C02D15FEA6F
:100FB000402C05D17FEA236CE4D15FEA412CE1D0DB
:100FC0005DF8040B704700BF844608466146FFE7A2
:100FD0000FB5FFF7C9FF002848BF10F1000F0FBD84
:100FE0004DF808EDFFF7F4FF0CBF012000205DF87D
:100FF00008FB00BF4DF808EDFFF7EAFF34BF012002
:1010000000205DF808FB00BF4DF808EDFFF7E0FF9A
:1010100094BF012000205DF808FB00BF4DF808EDEB
:10102000FFF7D2FF94BF012000205DF808FB00BF4E
:101030004DF808EDFFF7C8FF34BF012000205DF830
:1010400008FB00BF4FEA4002B2F1FE4F0FD34FF052
:101050009E03B3EB12620DD94FEA002343F0004325
:1010600010F0004F23FA02F018BF404270474FF0D3
:101070000000704712F1610F01D1420205D110F05A
:10108000004008BF6FF0004070474FF0000070470D
:1010900030B591B02822002106A802F0DFFF00241D
:1010A00001940294039404940594012206924FF44F
:1010B000803307930A9202250D950E934FF4E013A7
:1010C0000F9306A800F01EFF0F23019302950394CF
:1010D0004FF4806304930594294601A801F050F968
:1010E00011B030BD08B500F0BFFEFFF7D1FF01F031
:1010F00017FC01F063FC01F01DFE01F091FE01F010
:1011000005FF01F077FC01F077FF02F036FA02F0FC
:101110008BFA02F03FFE01220349044800F061FE11
:1011200002F0A0FAFCE700BF785400083802002063
:1011300070477047FEE7FEE7FEE7FEE7704770473F
:10114000704708B500F0A2FE08BD000008B50248CF
:1011500000F024FD08BD00BF3802002008B5024899
:1011600000F01CFD08BD00BF7C02002000B583B06C
:101170000F4B9A6942F001029A619A6902F00102EA
:101180000092009ADA6942F08052DA61DB6903F07A
:1011900080530193019B052001F054FB054A5368DD
:1011A00023F0E06343F00073536003B05DF804FB89
:1011B000001002400000014070B4036A23F00103F4
:1011C0000362036A4668826922F073020C6844EA8B
:1011D000020523F002028B6813430D4CA04209D094
:1011E0000B4CA0420DD0466085614A6842630362A1
:1011F00070BC704723F00803CA68134323F004034C
:10120000EEE726F440764A6932438E691643EAE7F0
:10121000002C014030B4036A23F480730362036A34
:101220004568C26922F073020C68224323F40073FC
:101230008C6843EA04230F4CA04209D00D4CA04215
:101240000ED04560C2614A68C263036230BC704719
:1012500023F40063CC6843EA042323F48063EDE7BE
:1012600025F440554C6945EA04158C6945EA041596
:10127000E7E700BF002C014030B4036A23F4805339
:101280000362036A4468C26922F4E6420D6842EAD6
:10129000052223F400538D6843EA0533074DA84225
:1012A00006D04460C2614A680264036230BC704781
:1012B00024F480444D6944EA8514F2E7002C01408F
:1012C00010B4036A046A24F001040462846924F0FF
:1012D000F00C4CEA021223F00A030B438261036212
:1012E00010BC704710B4046A24F0100404628469CE
:1012F000036A24F4704C4CEA023223F0A00343EA60
:1013000001138261036210BC7047836823F070038D
:101310000B4343F0070383607047704703681B4A21
:1013200090420AD0B0F1804F07D0A2F5943290429B
:1013300003D002F58062904203D123F070034A6823
:101340001343124A90420AD0B0F1804F07D0A2F561
:101350009432904203D002F58062904203D123F48C
:101360004073CA68134323F080034A691343036040
:101370008B68C3620B688362044B984202D00123DE
:10138000436170470B690363F9E700BF002C01401C
:1013900040B310B5044690F83D30F3B1022384F811
:1013A0003D30214651F8040BFFF7B8FF012384F8C4
:1013B000463084F83E3084F83F3084F8403084F87A
:1013C000413084F8423084F8433084F8443084F863
:1013D000453084F83D30002010BD80F83C3001F0ED
:1013E00007FCDBE70120704740B310B5044690F8D6
:1013F0003D30F3B1022384F83D30214651F8040B0F
:10140000FFF78CFF012384F8463084F83E3084F8DF
:101410003F3084F8403084F8413084F8423084F81A
:10142000433084F8443084F8453084F83D3000205F
:1014300010BD80F83C30FFF770FFDBE701207047FC
:1014400030B4036A23F010030362036A44688269BC
:1014500022F4E6420D6842EA052223F020038D685B
:1014600043EA05130E4DA84209D00D4DA8420ED0F7
:10147000446082614A688263036230BC704723F033
:101480008003CD6843EA051323F04003EDE724F41D
:1014900040644D6944EA85048D6944EA8504E7E7C0
:1014A000002C014038B590F83C30012B60D0044648
:1014B0000D46012380F83C300C2A1AD8DFE802F0F0
:1014C000071919191D19191931191919440000683A
:1014D000FFF772FE2268936943F008039361226864
:1014E000936923F0040393612268936929690B438C
:1014F0009361002084F83C0038BD0068FFF7A0FF2E
:101500002268936943F4006393612268936923F42A
:101510008063936122689369296943EA0123936197
:10152000E7E70068FFF776FE2268D36943F0080317
:10153000D3612268D36923F00403D3612268D3699D
:1015400029690B43D361D4E70068FFF795FE226851
:10155000D36943F40063D3612268D36923F48063C1
:10156000D3612268D369296943EA0123D361C0E7C3
:101570000220C1E710B4846824F47F4C42EA0322BD
:101580000A4342EA0C02826010BC704790F83C307B
:10159000012B66D010B50446012380F83C300223AD
:1015A00080F83D300268936823F47F4323F077038B
:1015B00093600B68602B40D022D8402B47D00BD9CA
:1015C000502B0ED1CA6849680068FFF779FE502198
:1015D0002068FFF79AFE04E0202B0CD008D9302BAE
:1015E00009D0012384F83D30002084F83C0010BD70
:1015F0000BB1102BF5D119462068FFF786FEF0E7F6
:10160000702B0ED0B3F5005FEBD1CB684A688968C8
:101610000068FFF7AFFF2268936843F4804393604C
:10162000DFE7CB684A6889680068FFF7A3FF226894
:10163000936843F077039360D3E7CA68496800680A
:10164000FFF750FE60212068FFF75FFEC9E7CA6818
:1016500049680068FFF734FE40212068FFF755FE17
:10166000BFE70220704701F01F01012303FA01FCCC
:10167000036A23EA0C030362036A02FA01F10B43D3
:101680000362704710B50446084651BB94F83E30DB
:10169000DBB2013B18BF0123002B5BD1002839D1FD
:1016A000022384F83E30012201462068FFF7DBFF69
:1016B00023682A4A93423DD02368284A93423ED069
:1016C000B3F1804F3BD0A2F59432934237D002F56C
:1016D0008062934233D01A6842F001021A600020FF
:1016E00039E0042908D008290DD094F84130DBB244
:1016F000013B18BF0123CFE794F83F30DBB2013B39
:1017000018BF0123C8E794F84030DBB2013B18BF93
:101710000123C1E7042805D0082807D0022384F854
:101720004130C0E7022384F83F30BCE7022384F84D
:101730004030B8E75A6C42F400425A64BCE79A68F9
:1017400002F00702062A07D01A6842F001021A6066
:10175000002000E0012010BD0020FCE7002C01402B
:1017600090F83C30012B2CD010B4012380F83C3091
:10177000022380F83D3003685A689C6822F0700CA0
:101780000A6842EA0C025A6003680F4A93420AD080
:10179000B3F1804F07D0A2F59432934203D002F503
:1017A0008062934204D124F080044A6814439C6010
:1017B000012380F83D30002380F83C30184610BCEF
:1017C00070470220704700BF002C01400268D368B8
:1017D00023F49073D3600268536923F001035361CB
:1017E000036B012B05D0202380F83E3000230363D8
:1017F00070470268D36823F01003D360F3E790F8D2
:101800003D30DBB2212B01D0022070478368B3F555
:10181000805F17D0036A5A1C02621A7803685A6004
:10182000C38C9BB2013B9BB2C3844BB90268D368A3
:1018300023F08003D3600268D36843F04003D36091
:10184000002070470369002BE4D1036A1B880268FB
:10185000C3F308035360036A02330362E0E7000046
:1018600010B504460268136923F44053C1680B4362
:10187000136183680269134342691A430168CB68A4
:1018800023F4B05323F00C031343CB600268536975
:1018900023F4407381690B4353610268134B9A42EE
:1018A00020D000F029FE024602EB820202EB820207
:1018B00063689B00B2FBF3F20D48A0FB02314909BB
:1018C000642303FB11231B013233A0FB03235B09B9
:1018D00003F0F00202EB011203F00F03216813443E
:1018E0008B6010BD00F018FE0246DDE700380140B5
:1018F0001F85EB512DE9F84305460F4616469946DC
:10190000DDF820802C68246837EA04030CBF4FF010
:10191000010C4FF0000CB4451FD1B8F1FF3FF1D0DE
:10192000B8F1000F05D000F0BDFAA0EB090040456A
:10193000E8D92A68D36823F4D073D3602A6853693E
:1019400023F001035361202385F83D3085F83E30B4
:10195000002385F83C30032000E00020BDE8F88338
:1019600058B310B5044690F83D300BB3242384F8E7
:101970003D302268D36823F40053D3602046FFF73C
:101980006FFF2268136923F490431361226853693F
:1019900023F02A0353612268D36843F40053D360D1
:1019A00000202064202384F83D3084F83E3010BDB0
:1019B00080F83C3001F03AF8D8E7012070472DE973
:1019C000F04182B01E4690F83D30DBB2202B54D15E
:1019D00004460D469046002953D0002A53D090F873
:1019E0003C30012B51D0012380F83C3000230364AC
:1019F000212380F83D3000F055FA0746A4F82480F2
:101A0000A4F82680A368B3F5805F05D04FF00008E6
:101A1000002384F83C3012E0236913B14FF0000832
:101A2000F6E7A8460025F3E738F8023B2268C3F33F
:101A300008035360E28C92B2013A92B2E284E38CE2
:101A40009BB273B100963B46002280212046FFF7EF
:101A500051FFE0B9002DE7D015F8012B23685A603B
:101A6000E8E700963B46002240212046FFF742FF70
:101A700078B9202384F83D3000E0022002B0BDE8B0
:101A8000F0810120FAE70120F8E70220F6E70320C1
:101A9000F4E70320F2E7704708B50168CA6822F04E
:101AA0004002CA60202280F83D20FFF7F4FF0020AA
:101AB00008BD704708B5406A0023C385C384FFF79B
:101AC000F8FF08BD704790F83E30DBB2222B60D1A2
:101AD0008368B3F5805F46D0826AB3F5805F04D037
:101AE000002B4DD10369002B4AD103685B6813704A
:101AF000836A01338362C38D9BB2013B9BB2C38572
:101B0000002B48D100B583B00268D36823F02003CE
:101B1000D3600268D36823F48073D360026853698A
:101B200023F001035361202380F83E30036B012B27
:101B30002CD1002303630268D36823F01003D36021
:101B400003681A6812F0100F06D0002201921A687A
:101B500001925B680193019B818DFFF7B3FF002029
:101B600003B05DF804FB0269002AB5D1826A0368FC
:101B70005B68C3F308031380836A02338362BAE7A6
:101B800003685B6803F07F031370B1E700F0CCFFDC
:101B9000E5E70220704700207047000030B583B0B1
:101BA000044602681368D068516913F00F0505D127
:101BB00013F0200F02D010F0200F19D12DB111F029
:101BC000010119D110F4907F16D1216B012975D034
:101BD00013F0800F03D010F0800F40F0D78013F087
:101BE000400F03D010F0400F40F0D48003B030BD60
:101BF0002046FFF768FFF9E713F0010F06D010F455
:101C0000807F03D0226C42F00102226413F0040FA3
:101C100004D019B1226C42F00202226413F0020FC8
:101C200004D019B1226C42F00402226413F0080FB0
:101C300007D010F0200F00D119B1226C42F0080239
:101C40002264226C002AD1D013F0200F02D010F0B1
:101C5000200F21D123685B6903F04003226C12F04E
:101C6000080F00D123B32046FFF7B0FD23685A695F
:101C700012F0400F18D05A6922F040025A61A36B4B
:101C800073B1464A5A63A06B00F090FD0028ADD0B6
:101C9000A06B436B9847A9E72046FFF714FFD9E7ED
:101CA0002046FFF706FFA1E72046FFF702FF9DE76A
:101CB0002046FFF7FEFE0023236497E713F0100F82
:101CC00086D010F0100F83D0002301931368019386
:101CD00053680193019B536913F0400F32D0A16BFD
:101CE0000B685B689BB2002B80D0A08D98427FF67A
:101CF0007DAFE3858B69202B08D1A18DE38D9BB24D
:101D0000C91A89B22046FFF7DDFE6FE7D36823F4D6
:101D10008073D3602268536923F001035361226802
:101D2000536923F040035361202384F83E3000239D
:101D300023632268D36823F01003D360A06B00F004
:101D400013FDDAE7A18DE38D9BB2C91A89B2E38D49
:101D50009BB2002B3FF44AAF00293FF447AFD36852
:101D600023F49073D3602268536923F00103536115
:101D7000202384F83E30002323632268D36823F0B5
:101D80001003D3602046FFF79DFE2FE72046FFF7A4
:101D900036FD2BE72046FFF77FFE27E7B51A000840
:101DA00090F83D3090F83E0018437047034681623A
:101DB0008285C28500201864222283F83E2083F8A1
:101DC0003C001968CA6842F48072CA6019684A699E
:101DD00042F001024A611A68D36843F02003D360DD
:101DE000704708B590F83E30DBB2202B0DD171B1B1
:101DF0007AB190F83C30012B0DD0012380F83C30B3
:101E000000230363FFF7D2FF00E0022008BD01209A
:101E1000FCE70120FAE70220F8E7000010B50446CD
:101E20000E4B18784FF47A73B3FBF0F30C4A10683A
:101E3000B0FBF3F000F05EFD68B90F2C01D9012072
:101E40000AE0002221464FF0FF3000F00DFD054B67
:101E50001C60002000E0012010BD00BF0000002039
:101E6000080000200400002008B5074A136843F06A
:101E700010031360032000F0E5FC0020FFF7CEFF05
:101E8000FFF774F9002008BD00200240034A1168E2
:101E9000034B1B780B441360704700BF30010020D8
:101EA00000000020014B1868704700BF300100207F
:101EB00038B50446FFF7F6FF0546B4F1FF3F02D000
:101EC000044B1B781C44FFF7EDFF401BA042FAD3E4
:101ED00038BD00BF0000002082B0084B1B68084AD4
:101EE000A2FB03235B0A00FB03F3019300BF019BEA
:101EF0005A1E0192002BF9D102B070470800002051
:101F0000D34D6210002800F0F18170B582B0044614
:101F1000036813F0010F2CD0994B5B6803F00C039E
:101F2000042B1DD0964B5B6803F00C03082B12D0DA
:101F30006368B3F5803F41D0002B55D103F1804356
:101F400003F504331A6822F480321A601A6822F406
:101F500080221A6037E08A4B5B6813F4803FE7D039
:101F6000874B1B6813F4003F03D06368002B00F01D
:101F7000BF81236813F0020F75D0814B5B6813F0AB
:101F80000C0F5FD07E4B5B6803F00C03082B54D022
:101F90002369002B00F08A807A4B01221A60FFF738
:101FA00081FF0546764B1B6813F0020F75D1FFF7D2
:101FB00079FF401B0228F5D903209EE1704A13687F
:101FC00043F480331360636843B3FFF76BFF054648
:101FD0006B4B1B6813F4003FCBD1FFF763FF401B33
:101FE0006428F5D9032088E1B3F5A02F09D0644B0C
:101FF0001A6822F480321A601A6822F480221A6069
:10200000E1E703F18043A3F53C331A6842F48022F0
:102010001A601A6842F480321A60D4E7FFF742FF70
:102020000546574B1B6813F4003FA2D0FFF73AFF59
:10203000401B6428F5D903205FE1514B5B6813F422
:10204000803FA5D14E4B1B6813F0020F03D02369CC
:10205000012B40F04F814A4A136823F0F80361696D
:1020600043EAC1031360236813F0080F33D0A36958
:10207000002B5CD0434B0122C3F88024FFF712FFF2
:1020800005463F4B5B6A13F0020F21D1FFF70AFFB1
:10209000401B0228F5D903202FE1394A136823F0A9
:1020A000F803616943EAC1031360DCE7354B0022A2
:1020B0001A60FFF7F7FE0546314B1B6813F0020F5D
:1020C000D1D0FFF7EFFE401B0228F5D9032014E121
:1020D0000120FFF701FF236813F0040F00F0968042
:1020E000274BDB6913F0805F34D1254BDA6942F06E
:1020F0008052DA61DB6903F080530193019B012573
:10210000214B1B6813F4807F26D0E368012B3DD060
:10211000002B53D103F1804303F504331A6A22F0F4
:1021200001021A621A6A22F004021A6233E0154BA5
:102130000022C3F88024FFF7B5FE0546104B5B6A0A
:1021400013F0020FC7D0FFF7ADFE401B0228F5D9F0
:102150000320D2E00025D3E70B4A136843F48073D1
:102160001360FFF79FFE0646074B1B6813F4807F42
:10217000CBD1FFF797FE801B6428F5D90320BCE084
:102180000010024000004242007000405F4A136AA3
:1021900043F001031362E36833B3FFF783FE06469F
:1021A0005A4B1B6A13F0020F2FD1FFF77BFE801BE7
:1021B00041F288339842F3D903209EE0052B09D0E1
:1021C000524B1A6A22F001021A621A6A22F00402C1
:1021D0001A62E0E74D4B1A6A42F004021A621A6A68
:1021E00042F001021A62D6E7FFF75CFE0646474B53
:1021F0001B6A13F0020F08D0FFF754FE801B41F258
:1022000088339842F3D9032077E0E5B9E369002BDE
:1022100072D03E4A526802F00C02082A56D0022BB5
:1022200017D03B4B00221A66FFF73CFE0446374BA3
:102230001B6813F0007F47D0FFF734FE001B022815
:10224000F5D9032059E0314AD36923F08053D36193
:10225000DCE72F4B00221A66FFF724FE05462B4BC6
:102260001B6813F0007F06D0FFF71CFE401B0228FE
:10227000F5D9032041E0236AB3F5803F1AD0234902
:102280004B6823F47413226A606A024313434B6061
:102290001F4B01221A66FFF705FE04461B4B1B6805
:1022A00013F0007F0ED1FFF7FDFD001B0228F5D9CA
:1022B000032022E0154A536823F40033A1680B433E
:1022C0005360DCE7002018E0002016E0012B16D058
:1022D0000E4B5B6803F48031226A914211D103F402
:1022E0007013626A93420ED1002006E0012070470D
:1022F000012002E0012000E0002002B070BD0120BA
:10230000FBE70120F9E70120F7E700BF00100240DA
:102310000000424286B0164B0FCB0DF1180C0CE9B1
:102320000F0040F20123ADF80430124B5B6803F05C
:102330000C02082A02D0104806B07047C3F383424B
:10234000624412F8100C13F4803F0CD0094B5B6808
:10235000C3F34043634413F8143C074A02FB00F004
:10236000B0FBF3F0E8E7054B03FB00F0E4E700BF48
:102370007C5400080010024000127A0000093D0061
:10238000002800F0A08070B50D460446524B1B6833
:1023900003F007038B420BD24F4A136823F0070365
:1023A0000B431360136803F007038B4240F08D80EA
:1023B000236813F0020F17D013F0040F04D0474A1C
:1023C000536843F4E0635360236813F0080F04D0AC
:1023D000424A536843F460535360404A536823F0C1
:1023E000F003A1680B435360236813F0010F31D051
:1023F0006368012B20D0022B25D0384A126812F0D6
:10240000020F64D035494A6822F0030213434B603F
:10241000FFF748FD0646314B5B6803F00C0362682A
:10242000B3EB820F16D0FFF73DFD801B41F28833DE
:102430009842F0D9032045E0284A126812F4003F80
:10244000E0D101203EE0254A126812F0007FD9D188
:10245000012037E0204B1B6803F00703AB420AD989
:102460001D4A136823F007032B431360136803F01E
:102470000703AB422DD1236813F0040F06D0174A8F
:10248000536823F4E063E1680B435360236813F05F
:10249000080F07D0114A536823F46053216943EAB7
:1024A000C1035360FFF736FF0C4B5B68C3F30313A4
:1024B0000B4AD35CD8400B4B18600B4B1868FFF7E6
:1024C000ADFC002070BD012070470120FAE701201B
:1024D000F8E70120F6E700BF0020024000100240AC
:1024E000905400080800002004000020014B1868E8
:1024F000704700BF0800002008B5FFF7F7FF044B46
:102500005B68C3F30223034AD35CD84008BD00BF15
:1025100000100240A054000808B5FFF7E7FF044B85
:102520005B68C3F3C223034AD35CD84008BD00BF35
:1025300000100240A054000870B582B00024A446E8
:10254000A6E0804DAA4210D007D97F4DAA420CD0F8
:1025500005F58035AA4208D013E0A5F58015AA42FA
:1025600003D005F57025AA4207D18A68002A58D001
:10257000012A51D04361082403E0A5F58015AA4241
:10258000F3D0BEF1FF0F4ED80646BEF1FF0F4CD878
:102590004FEA8C0233680F25954023EA050304FABD
:1025A00002F2134333604B6813F0805F6ED0674BC9
:1025B0009A6942F001029A619B6903F00103019359
:1025C000019B4FEA9C02951C614B53F825600CF06F
:1025D00003039D000F23AB4026EA03065D4B9842A0
:1025E00029D003F58063984200F08E8003F5806364
:1025F000984200F08B8003F58063984219D0042341
:102600001AE0CC68BDE7CC680434BAE7CC6808347B
:10261000B7E7CC680C34B4E703610824B1E70024C1
:10262000AFE70424ADE7061DAFE7ACF10802920066
:10263000B0E7032300E00023AB4033430232444DB4
:1026400045F822304B6813F4803F61D0424A13684A
:1026500043EA0E0313604B6813F4003F5ED03E4A1A
:10266000536843EA0E0353604B6813F4801F5BD03A
:10267000394A936843EA0E0393604B6813F4001FD2
:1026800058D0354AD36843EA0E03D3600CF1010CED
:102690000A6832FA0CF353D0012303FA0CF302EA6E
:1026A000030E33EA0202F1D14A68122A3FF649AF1B
:1026B000122A3FF666AF01A555F822F06B250008F7
:1026C000032600080D2600081F26000883250008A1
:1026D000832500088325000883250008832500083A
:1026E000832500088325000883250008832500082A
:1026F000832500088325000883250008832500081A
:102700000726000813260008012395E7022393E714
:10271000114A136823EA0E0313609CE70E4A5368BC
:1027200023EA0E0353609FE70B4A936823EA0E03E4
:102730009360A2E7084AD36823EA0E03D360A5E7B3
:1027400002B070BD000022100000311000100240E5
:102750000000014000080140000401400AB101618D
:10276000704709040161704790F82130022B06D0B0
:1027700004238363002380F820300120704702681F
:10278000136823F00E0313600268136823F001033B
:102790001360036CC16B012202FA03F34B6080F8F3
:1027A0002120002380F820301846704708B590F8A3
:1027B0002130022B03D004238363012008BD02686B
:1027C000136823F00E0313600268136823F00103FB
:1027D00013600368194A934214D0143293421FD0F5
:1027E000143293421ED0143293421ED014329342BC
:1027F0001ED01432934202D04FF0807203E04FF4A7
:10280000801200E001220E4B5A60012380F8213033
:10281000002380F82030436B6BB198470020CDE750
:102820001022F0E74FF48072EDE74FF48052EAE7B0
:102830004FF48032E7E70020C0E700BF0800024005
:1028400000000240074AD36823F4E0631B041B0C1A
:10285000000200F4E060034343F0BF6343F400333D
:10286000D360704700ED00E000B5194BDB68C3F39F
:102870000223C3F1070CBCF1040F28BF4FF0040C76
:1028800003F1040EBEF1060F18D9033B4FF0FF3ED3
:102890000EFA0CFC21EA0C0199400EFA03F322EA2D
:1028A0000303194300280BDB0901C9B200F16040A2
:1028B00000F5614080F800135DF804FB0023E5E7B4
:1028C00000F00F000901C9B2024B1954F4E700BF30
:1028D00000ED00E014ED00E0002807DB00F01F022F
:1028E000400901239340024A42F82030704700BF5C
:1028F00000E100E00138B0F1807F0BD24FF0E0231F
:102900005861054AF02182F82310002098610722BF
:102910001A6170470120704700ED00E07047000029
:10292000F0B589B000240494059406940794204BD4
:102930009A6942F020029A619A6902F0200201929B
:10294000019A9A6942F004029A619A6902F00402BB
:102950000292029A9A6942F008029A619B6903F016
:1029600008030393039B134F224630213846FFF799
:10297000F5FE114D22464AF218012846FFF7EEFEF9
:10298000302304930126059606940323079304A994
:102990003846FFF7D1FD4AF21803049305960694D2
:1029A0000223079304A92846FFF7C6FD09B0F0BD2E
:1029B0000010024000080140000C014008B50A4820
:1029C0000A4B03600A4B436000238360C3600361CA
:1029D0000C2242618361C361FEF7C2FF00B908BDEA
:1029E000FEF7A6FBFBE700BF3802002000380140DD
:1029F00020A1070008B50A480A4B03600A4B436050
:102A000000238360C36003610C2242618361C36160
:102A1000FEF7A6FF00B908BDFEF78AFBFBE700BF83
:102A20007C0200200048004020A1070030B589B09A
:102A3000002304930593069307930368354A934252
:102A400004D0354A934233D009B030BD334B9A6934
:102A500042F480429A619A6902F480420092009A9C
:102A60009A6942F004029A619B6903F0040301939E
:102A7000019B4FF4007304930223059303230793F0
:102A8000274D04A92846FFF757FD4FF480630493B0
:102A900000240594069404A92846FFF74DFD012261
:102AA00021462520FFF7E0FE2520FFF715FFCBE7A5
:102AB0001A4BDA6942F48022DA61DA6902F4802280
:102AC0000292029A9A6942F008029A619B6903F0A5
:102AD00008030393039B4FF480630493022405943B
:102AE000032307930F4D04A92846FFF725FD4FF454
:102AF0000063049300230593069304A92846FFF777
:102B00001BFD224601212720FFF7AEFE2720FFF7FD
:102B1000E3FE99E700380140004800400010024001
:102B200000080140000C014008B51A4B1B78FF2B30
:102B30001FD05A1CD2B217490A701749174800789B
:102B4000C8544FF6FF731648FEF739FF1448FFF7D5
:102B500027F92128FAD000210E4B19704FF480720A
:102B60000D4801F07BFA01220C490D48FFF739F9B5
:102B700008BD0021074B19704FF48072064801F020
:102B80006DFA4FF6FF730A2206490548FEF717FF54
:102B9000E9E700BF340200203401002035020020A4
:102BA00038020020A854000838B5FFF77BF9054625
:102BB0004FF47A744FF0E022536991695B1A04FB79
:102BC00003F35269B3FBF2F304FB0034FFF76AF935
:102BD000A842EAD1204638BD38B50546FFF7E4FFE4
:102BE0000446FFF7E1FF001BA842FAD338BD0000FE
:102BF00084B00368B3F1804F07D0154A934210D0D8
:102C0000144A934218D004B0704703F50433DA69CC
:102C100042F00102DA61DB6903F001030193019BD9
:102C2000F1E70D4BDA6942F00202DA61DB6903F089
:102C300002030293029BE6E7074BDA6942F00402C3
:102C4000DA61DB6903F004030393039BDBE700BF56
:102C500000040040000800400010024010B588B099
:102C6000002304930593069307930368B3F1804F01
:102C700007D02B4A934219D02A4A93423BD008B03E
:102C800010BD03F504339A6942F004029A619B690E
:102C900003F004030093009B0F2304930223059386
:102CA000079304A92048FFF747FCE8E71F4B9A6900
:102CB00042F004029A619A6902F004020192019AB8
:102CC0009A6942F008029A619B6903F00803029333
:102CD000029BC023049302240594079404A912487C
:102CE000FFF72AFC032304930594079404A91048D2
:102CF000FFF722FCC3E70D4B9A6942F008029A6184
:102D00009B6903F008030393039B4FF470730493D0
:102D100002230593079304A90548FFF70DFCAEE7CE
:102D2000000400400008004000080140001002407C
:102D3000000C014000B58FB000230A930B930C9355
:102D40000D930893099301930293039304930593BE
:102D50000693079331484FF0804202604722426059
:102D6000836044F61F62C26003618361FEF710FB5B
:102D700000283AD14FF480530A930AA92748FEF756
:102D800005FC002834D12548FEF72EFB002832D15F
:102D900000230893099308A92048FEF7E1FC68BBCB
:102DA000702301930022029202230393059201A94A
:102DB0001A48FEF777FB20BB04220DEB02011748EF
:102DC000FEF770FB00BB082201A91448FEF76AFB5E
:102DD000E8B90C2201A91148FEF764FBD0B90F48ED
:102DE000FFF73CFF0FB05DF804FBFEF7A1F9C1E768
:102DF000FEF79EF9C7E7FEF79BF9C9E7FEF798F9DA
:102E0000CEE7FEF795F9D7E7FEF792F9DBE7FEF795
:102E10008FF9DEE7FEF78CF9E1E700BFC002002082
:102E200000B58FB000230A930B930C930D93089376
:102E300009930193029303930493059306930793D5
:102E40003048314A026047224260836044F61F6284
:102E5000C26003618361FEF79BFA00283AD14FF408
:102E600080530A930AA92748FEF790FB002834D123
:102E70002448FEF7B9FA002832D1002308930993B9
:102E800008A92048FEF76CFC68BB70230193002260
:102E9000029202230393059201A91A48FEF702FB4E
:102EA00020BB04220DEB02011648FEF7FBFA00BB23
:102EB000082201A91348FEF7F5FAE8B90C2201A986
:102EC0001048FEF7EFFAD0B90E48FFF7C7FE0FB073
:102ED0005DF804FBFEF72CF9C1E7FEF729F9C7E717
:102EE000FEF726F9C9E7FEF723F9CEE7FEF720F94A
:102EF000D7E7FEF71DF9DBE7FEF71AF9DEE7FEF785
:102F000017F9E1E7080300200004004000B58FB086
:102F100000230A930B930C930D9308930993019349
:102F20000293039304930593069307933048314A21
:102F3000026047224260836044F61F62C260036100
:102F40008361FEF725FA00283AD14FF480530A93A3
:102F50000AA92748FEF71AFB002834D12448FEF7B7
:102F600043FA002832D100230893099308A9204886
:102F7000FEF7F6FB68BB7023019300220292022346
:102F80000393059201A91A48FEF78CFA20BB04228C
:102F90000DEB02011648FEF785FA00BB082201A9D5
:102FA0001348FEF77FFAE8B90C2201A91048FEF792
:102FB00079FAD0B90E48FFF751FE0FB05DF804FB67
:102FC000FEF7B6F8C1E7FEF7B3F8C7E7FEF7B0F8CB
:102FD000C9E7FEF7ADF8CEE7FEF7AAF8D7E7FEF7A8
:102FE000A7F8DBE7FEF7A4F8DEE7FEF7A1F8E1E7D4
:102FF000500300200008004010B51A4C0021204664
:10300000FEF740FB04212046FEF73CFB082120464A
:10301000FEF738FB0C212046FEF734FB124C002152
:103020002046FEF72FFB04212046FEF72BFB08214C
:103030002046FEF727FB0C212046FEF723FB0B4C16
:1030400000212046FEF71EFB04212046FEF71AFB56
:1030500008212046FEF716FB0C212046FEF712FB46
:1030600010BD00BFC0020020080300205003002054
:10307000144B1A6822F470221A601A6842F4403223
:103080001A60114B0122C3F89021D3F810310BB90B
:103090000020704710B50C4C1046C4F89421FFF77F
:1030A0009BFD0023C4F89031D4F810310BB10020FF
:1030B00010BD0120FFF790FD0022C4F894210120EB
:1030C000F6E700BF0008014000002142F8B50546C0
:1030D000134B1A6822F470221A601A6842F44032C4
:1030E0001A6000240F4BC3F8944116E0EB090D4F12
:1030F000C7F890316D00EDB20120FFF76DFD01269C
:10310000C7F894613046FFF767FD0023C7F8943194
:103110003046FFF761FD3444E4B2072CE6D9F8BD30
:10312000000801400000214238B50D4C0025C4F8CC
:1031300094510C4B1A6822F470221A601A6842F4F7
:1031400040321A60C4F890510120FFF745FD01207C
:10315000C4F89401FFF740FDC4F8945138BD00BF96
:10316000000021420008014070B50D4C0026C4F853
:1031700094610C4B1A6822F470221A601A6842F4A7
:1031800040321A600125C4F890512846FFF724FD0B
:10319000C4F894512846FFF71FFDC4F8946170BD30
:1031A0000000214200080140F8B50746164B1A6896
:1031B00022F470221A601A6842F400221A60002475
:1031C000254604E00220FFF707FD0135EDB2072D8B
:1031D00012D80E4E0023C6F894310220FFF7FCFCF3
:1031E0000123C6F894319C40E4B2D6F81031002B8C
:1031F000E8D00134E4B2E5E71FB1FFF795FF2046C0
:10320000F8BDFFF7B1FFFAE70008014000002142D6
:1032100010B50D4B1A6822F470221A601A6842F435
:1032200040321A60094C0023C4F89431C4F890313C
:103230000120FFF7D1FC0120C4F89401C4F89001EB
:10324000FFF7CAFC10BD00BF00080140000021428A
:1032500038B5164B1A6822F470221A601A6842F4C4
:1032600000221A60124D0124C5F890412046FFF754
:10327000B3FCC5F894412046FFF7AEFC002402E001
:103280000120FFF7A9FC0A4BD3F810313BB1013400
:10329000E4B2322CF4D9FFF7BBFF002004E0044B6A
:1032A0000022C3F89421012038BD00BF000801406E
:1032B00000002142F8B504460F4615461E46FFF7AA
:1032C000D7FE6400E4B22046FFF700FFFFF7C0FF1F
:1032D0003846FFF7FBFEFFF7BBFFFFF7C9FE601C98
:1032E000C0B2FFF7F3FEFFF7B3FF002405E00020B4
:1032F000FFF75AFF30550134E4B2AC4207D26A1EE0
:103300009442F4D00120FFF74FFF3055F3E7FFF769
:103310007FFF2046F8BDF8B504460F4615461E4609
:10332000FFF7A6FE600000F0FE00FFF7CFFEFFF7FC
:103330008FFF3846FFF7CAFEFFF78AFF002406E03A
:10334000305DFFF7C3FEFFF783FF0134E4B2AC4208
:10335000F6D3FFF75DFF0120F8BD00B583B08DF80F
:1033600007200DF107030122FFF7D5FF03B05DF839
:1033700004FB08B5024619216820FFF7EEFF08BDDF
:1033800010B5002407E00A4B012275216820FFF7E1
:1033900091FF0134E4B2064B1B78682B01D0092C55
:1033A000F1D9092C00D810BD024800F05FFEFAE701
:1033B00098030020B854000838B504460D46FFF7BE
:1033C00057FE6400E4B22046FFF780FEFFF740FF9F
:1033D0002846FFF77BFEFFF73BFFFFF749FE601C27
:1033E000C0B2FFF773FEFFF733FF0020FFF7DCFEEC
:1033F0000446FFF70DFF204638BD10B51446FFF711
:10340000DBFF2070012010BDF0B583B004460D46EF
:1034100016461F460DF10702FFF7EFFF77B10122B5
:1034200002FA06F69DF807203243D2B28DF8072043
:1034300029462046FFF791FF03B0F0BD012202FAB2
:1034400006F69DF8072022EA0602EFE708B50346D4
:1034500007226B216820FFF7D7FF6420FEF728FDC5
:1034600008BD08B50346002238216820FFF7CCFFCD
:1034700008BD08B5034606226B216820FFF7C4FF8C
:1034800008BD08B5034605226A216820FFF7BCFF86
:1034900008BD08B50346012237216820FFF7B4FFB5
:1034A00008BDF0B583B006460F4614461D460DF123
:1034B0000702FFF7A2FF08B903B0F0BD621CFF21AD
:1034C00001FA02F2C4F108032B44013B41FA03F371
:1034D0001A43C5F108059DF8201001FA05F5C4F15D
:1034E0000703ECB21C41E4B29DF807301A408DF896
:1034F000072022438DF8072039463046FFF72DFF7D
:10350000DAE700B583B00090032302226B21682024
:10351000FFF7C7FF03B05DF804FB00B583B0009070
:10352000062305226C216820FFF7BBFF03B05DF87E
:1035300004FB00B583B00090022304221B21682005
:10354000FFF7AFFF03B05DF804FB00B583B0009058
:10355000022304221C216820FFF7A3FF03B05DF8BB
:1035600004FB00B583B00090032302221A216820D7
:10357000FFF797FF03B05DF804FB08B5FFF700FF06
:103580000120FFF763FF0220FFF7BBFF0020FFF7DA
:10359000C4FF0020FFF765FF0020FFF7EAFE0320CD
:1035A000FFF7C7FF0020FFF7D0FF0220FFF7D9FF8A
:1035B0000020FFF75EFF0020FFF763FF0120FFF709
:1035C00068FF08BD704770477047704708B500F046
:1035D000EFFC08BD10B5FFF7E7FA044C2060FFF7D9
:1035E000E3FA60602368C01AA06010BDB403002035
:1035F00038B5094C63682360FFF7D6FA6060074D61
:10360000E8602368C01AA060FFF7CEFA2861EB6873
:10361000C01A686138BD00BFA8030020B4030020B1
:1036200008B500F035FA08BD002301E00133DBB234
:10363000072B14D803EB43018A00094911448888F9
:103640004FF47A72B2FBF0F2CA80002AEED103EB9B
:1036500043029100024A0A440121D180E6E7704703
:103660000C00002010B5002401E00134E4B2072C66
:1036700017D8FEF717FC04EB44030A4A02EB830356
:103680009A68821ADB889A42EFD3064A04EB440315
:1036900002EB8303986004EB440352F8233098470D
:1036A000E3E710BD0C0000202DE9F04F87B007467E
:1036B0000C46684B1A680292114603942046FDF7A7
:1036C000F1F9654B1D682946FDF7F6FA634C216850
:1036D000FDF7EAF900902060614CD4F804B0594637
:1036E000604B1868FDF7DEF9D4F808A05146FDF7E5
:1036F000D9F901465C4B1860D4F80C8008F10046FB
:103700005E609E60594AD2F80090C3F80C9028463B
:10371000FDF7D2FA2168FDF7C7F901902060314624
:103720002846FDF7C9FA064601465846FDF7BCF99A
:103730008346606031465046FDF7B6F98246A06088
:1037400049462846FDF7B8FA01464046FDF7ACF970
:103750000490E06000993846FDF7A4F98146444B97
:103760001860444B1878FDF753FA07460146019854
:10377000FDF7A2FA0546404B186039465046FDF762
:103780009BFA3E4B0590186029463846FDF794FA9F
:103790003B4B1968FDF788F980463A4B18600146A3
:1037A0002846FDF73DFB0646374B18604146059815
:1037B000FDF736FB8046354B1860354B1D603946AA
:1037C0005846FDF779FA0746324B186031462846CD
:1037D000FDF772FA01460198FDF764F92060394659
:1037E0003046FDF769FA01465846FDF75BF960601F
:1037F00041462846FDF760FA01465046FDF752F96A
:10380000A06039464046FDF757FA01460498FDF797
:1038100049F9E06031464846FDF74EFA0146009806
:10382000FDF742F904460D4B186041464846FDF746
:1038300043FA01460298FDF737F90146054B186037
:103840000398FDF72FF9144B1860204607B0BDE828
:10385000F08F00BF20040020A800002028040020D2
:10386000700000209000002000040020980000203C
:10387000CC0300206C000020F0030020F80300209F
:10388000A0000020D8030020E0030020E80300206F
:103890003804002040040020300400202DE9F04FBF
:1038A00087B007460C46684B1A680292114603948B
:1038B0002046FDF7F7F8654B1D682946FDF7FCF932
:1038C000634C2168FDF7F0F800902060614CD4F85B
:1038D00004B05946604B1868FDF7E4F8D4F808A026
:1038E0005146FDF7DFF801465C4B1860D4F80C80B8
:1038F00008F100465E609E60594AD2F80090C3F815
:103900000C902846FDF7D8F92168FDF7CDF8019015
:10391000206031462846FDF7CFF906460146584655
:10392000FDF7C2F88346606031465046FDF7BCF8AB
:103930008246A06049462846FDF7BEF9014640464A
:10394000FDF7B2F80490E06000993846FDF7AAF858
:103950008146444B1860444B1878FDF759F90746E7
:1039600001460198FDF7A8F90546404B1860394615
:103970005046FDF7A1F93E4B0590186029463846A0
:10398000FDF79AF93B4B1968FDF78EF880463A4BE4
:10399000186001462846FDF743FA0646374B186083
:1039A00041460598FDF73CFA8046354B1860354B8B
:1039B0001D6039465846FDF77FF90746324B1860BF
:1039C00031462846FDF778F901460198FDF76AF877
:1039D000206039463046FDF76FF901465846FDF73D
:1039E00061F8606041462846FDF766F90146504699
:1039F000FDF758F8A06039464046FDF75DF90146ED
:103A00000498FDF74FF8E06031464846FDF754F959
:103A100001460098FDF748F804460D4B18604146F2
:103A20004846FDF749F901460298FDF73DF8014681
:103A3000054B18600398FDF735F8144B18602046C5
:103A400007B0BDE8F08F00BF24040020AC000020C8
:103A50002C0400208000002094000020100400208E
:103A60009C000020D00300206D000020F403002003
:103A7000FC030020A4000020DC030020E40300205D
:103A8000EC0300203C040020440400203404002007
:103A90002DE9F04745216820FFF78EFC04024621FE
:103AA0006820FFF789FC2044FDF7B2F80546432162
:103AB0006820FFF781FC040244216820FFF77CFCAA
:103AC0002044FDF7A5F8044647216820FFF774FC61
:103AD00048216820FFF770FC75492846FDF7A8FAD1
:103AE00070B14FF08E412846FDF77AFA30B94FF0A9
:103AF0008F412846FCF7D6FF054601E04FF04745C9
:103B00006B492046FDF794FA70B14FF08E41204684
:103B1000FDF766FA30B94FF08F412046FCF7C2FF3F
:103B2000044601E04FF047442846FCF775FC5CA3CF
:103B3000D3E90023FCF7F2FDFCF760FF06462046C0
:103B4000FCF76AFC56A3D3E90023FCF7E7FDFCF77A
:103B500055FF82463F216820FFF72EFC04024021DA
:103B60006820FFF729FC2044FDF752F805463B2169
:103B70006820FFF721FC04023C216820FFF71CFCB1
:103B80002044FDF745F804463D216820FFF714FC6A
:103B900007023E216820FFF70FFC3844FDF738F894
:103BA00007464349FDF744FA70B14FF08E4138465D
:103BB000FDF716FA30B94FF08F413846FCF772FF27
:103BC000074601E04FF0474739492046FDF730FAF4
:103BD00070B14FF08E412046FDF702FA30B94FF038
:103BE0008F412046FCF75EFF044601E04FF047445A
:103BF0002F492846FDF71CFA70B14FF08E41284638
:103C0000FDF7EEF930B94FF08F412846FCF74AFF37
:103C1000054601E04FF047452846FCF7FDFB80468E
:103C200089462046FCF7F8FB42464B4601F078F9FE
:103C30000022204BFCF748FC1BA3D3E90023FCF730
:103C40006DFDFCF7DBFE05463846FCF7E5FB42461A
:103C50004B4601F065F90022164BFCF735FC12A328
:103C6000D3E90023FCF75AFDFCF7C8FE044606F131
:103C700000412846FFF712FE00F10040FDF7E2F98F
:103C80000D4B188051462046FFF70EFD00F1004015
:103C9000FDF7D8F9094B1880BDE8F087AFF3008035
:103CA000666666666666304000000060FB2109407B
:103CB00000FEFF4600806640D4030020D6030020AB
:103CC00029B1144B0122C3F88C21002310E0114BC1
:103CD0000022C3F88C21F8E70E4A0021C2F8BC117B
:103CE0000C4A0121C2F8B4118840C0B20B44DBB2C7
:103CF000072B0AD8074A0021C2F8B41110F0800F30
:103D0000EAD00121C2F8BC11EAE7024B0122C3F854
:103D10008C2170470080214238B500250DE0104B02
:103D200003EBC4030121585DFFF7CAFF0134E4B27D
:103D300014F0800FF3D00135EDB2072D0FD8A5F1A7
:103D400050000021C0B2FFF7BBFF00210846FFF77B
:103D5000B7FF00211020FFF7B3FF0024E8E738BDCC
:103D60004804002008B500200BE0094A02EBC3021A
:103D7000002111540133DBB213F0800FF5D0013074
:103D8000C0B2072801D80023F6E7FFF7C5FF08BD3A
:103D90004804002038B5384D0024C5F8904164200F
:103DA000FEF786F80123C5F890312146AE20FFF7D3
:103DB00087FF2146D520FFF783FF21465020FFF7DC
:103DC0007FFF2146A820FFF77BFF21463F20FFF71A
:103DD00077FF2146D320FFF773FF21462046FFF7E8
:103DE0006FFF21464020FFF76BFF21468D20FFF734
:103DF00067FF21461420FFF763FF21462020FFF7CD
:103E00005FFF21460220FFF75BFF2146A120FFF75D
:103E100057FF2146C020FFF753FF2146DA20FFF766
:103E20004FFF21461220FFF74BFF21468120FFF76D
:103E300047FF2146EF20FFF743FF2146D920FFF738
:103E40003FFF2146F120FFF73BFF2146DB20FFF734
:103E500037FF21463020FFF733FF2146A420FFF72C
:103E60002FFF2146A620FFF72BFF2146AF20FFF7AB
:103E700027FFFFF777FF38BD0080214210F0800F49
:103E800020D13F291ED8CB08C3F10703DBB201F0D4
:103E90000701C1F107014FF0010C0CFA01F15FFAC3
:103EA00081FC42B1084A02EBC000C25C4CEA020C41
:103EB00000F803C07047044A02EBC000C25C22EA6B
:103EC0000101C154704700BF480400202DE9F04FA4
:103ED00083B0804689461F469DF830B0203AD3B261
:103EE00001930C464FF0000A2DE0019B03EB4303C6
:103EF0001C4A02EB830313F80A502EE0BBFA8BF244
:103F0000520921464046FFF7B9FF6D00EDB201347A
:103F1000E4B2A4EB0903BB420CD00136F6B2072E83
:103F20000DD815F0800FE9D05A4621464046FFF7DC
:103F3000A5FFEAE708F101085FFA88F84C460AF1A4
:103F4000010A5FFA8AFABA4509D20C2FCDD0064B86
:103F5000019A03EB021313F80A500026DFE703B0BF
:103F6000BDE8F08FD85400084C59000870B582B0F5
:103F700004460D4616460CE03A2D12D80123009354
:103F8000102316F8012B29462046FFF79FFF08341F
:103F9000E4B2337853B17A2CEED91035EDB2002467
:103FA000EAE7FFF7DFFE00252C46E7E702B070BD29
:103FB00008B5044A00210820FFF7D8FFFFF7ACFE40
:103FC00008BD00BF3C5F00080C480D490D4A0023A6
:103FD00002E0D458C4500433C4188C42F9D30A4ABE
:103FE0000A4C002301E013600432A242FBD3FEF727
:103FF00095FC00F00FF8FDF775F870470000002001
:104000001401002058600008140100205C08002002
:10401000FEE7000070B500260C4D0D4C641BA4108B
:10402000A64209D101F01CFA00260A4D0A4C641B75
:10403000A410A64205D170BD55F8043B984701363F
:10404000EEE755F8043B98470136F2E75060000868
:1040500050600008506000085460000803460244A5
:10406000934200D1704703F8011BF9E70FB40A4BE4
:1040700013B51C6824B1A36913B9204600F066F893
:1040800005AB2046049AA168019300F081F902B0C3
:10409000BDE8104004B07047B0000020002310B508
:1040A0000446C0E90033C0E904338360818143667C
:1040B000C2818361194608225C30FFF7CFFF054BB0
:1040C00024626362044BA362044BE362044B2363E8
:1040D00010BD00BF3D4900085F490008974900082E
:1040E000BB490008014900F0AFB800BF8D4C000883
:1040F000682270B54D1E55430E4605F1740100F05F
:10410000C5F8044640B10021C0E900160C30A0609B
:1041100005F16802FFF7A2FF204670BD014800F0DC
:10412000B3B800BF49080020014800F0AEB800BF96
:1041300049080020014800F0A7B800BF4A08002045
:10414000014800F0A2B800BF4A08002010B504469C
:10415000FFF7F0FFA3691BB1BDE81040FFF7F0BF08
:10416000C4E912332365134B134A1B68A262A342AE
:1041700008BF0123204608BFA36100F01FF860605C
:10418000204600F01BF8A060204600F017F800223F
:104190000421E0606068FFF781FF01220921A06827
:1041A000FFF77CFF02221221E068FFF777FF01236F
:1041B000A361D1E7485F0008E5400008F8B507466D
:1041C000FFF7ACFF1E4B1E68B36913B93046FFF70B
:1041D000BDFF4836D6E90134013B03D533680BB344
:1041E0003668F7E7B4F90C50D5B9164B04F158000E
:1041F000E360656600F047F8FFF796FF082229465E
:10420000C4E90155C4E904552560A56104F15C00C9
:10421000FFF724FFC4E90D55C4E912552046F8BD47
:104220006834D9E704213846FFF762FF044630605E
:104230000028D5D1FFF778FF0C233B60EEE700BFE5
:10424000485F00080100FFFF2DE9F8430646884655
:10425000002700F14804D4E90195B9F1010905D519
:104260002468002CF7D13846BDE8F883AB89012BD0
:1042700007D9B5F90E30013303D029463046C0477F
:1042800007436835E9E7704770477047F8B5CD1CBC
:1042900025F0030508350C2D38BF0C25002D0646EA
:1042A00001DBA94203D90C2333600020F8BD00F0E4
:1042B000AFFD21490A6814469CB9204F3B6823B9D9
:1042C0002146304600F02AFB38602946304600F08F
:1042D00025FB431C23D10C233046336000F09EFDA8
:1042E000E3E723685B1B17D40B2B03D923601C4423
:1042F000256004E06368A2420CBF0B605360304647
:1043000000F08CFD04F10B00231D20F00700C21A01
:10431000CCD01B1AA350C9E722466468CCE7C41C62
:1043200024F00304A042E3D0211A304600F0F6FA4C
:104330000130DDD1CFE700BF4C080020500800203D
:10434000936810B4013B002B936007DA9469A34291
:1043500001DB0A2902D110BC00F034BB1368581CE1
:1043600010601970084610BC7047F8B506460F4635
:104370001446D518AC4201D1002007E03A46304639
:1043800014F8011BFFF7DCFF431CF3D1F8BD00005C
:104390002DE9F04F0D461446984606469DB018B1DB
:1043A00083690BB9FFF7D2FE894B9D421BD175681B
:1043B0006B6ED90705D4AB899A0502D4A86DFFF7B7
:1043C00063FFAB891B0701D52B69EBB92946304642
:1043D00000F05CFBC0B16B6EDC070ED54FF0FF3018
:1043E0001DB0BDE8F08F7B4B9D4201D1B568DFE782
:1043F000794B9D4208BFF568DAE7AB899805EDD4A3
:10440000A86DFFF742FFE9E70023099320238DF809
:10441000293030234FF00109CDF80C80DFF8BC8142
:104420008DF82A3023469A4613F8012B0AB1252A23
:10443000F9D1BAEB040B0BD05B4622462946304635
:10444000FFF793FF013000F0AA80099A5A440992BD
:104450009AF80030002B00F0A28000234FF0FF32CA
:10446000CDE905230AF1010A049307938DF853302F
:104470001A935446052214F8011B584800F0BAFC60
:10448000049AD8B9D10644BF20238DF853301307BE
:1044900044BF2B238DF853309AF800302A2B15D0C7
:1044A000544600204FF00A0C079A214611F8013BB0
:1044B000303B092B4ED9B0B1079214E0A0EB0803B2
:1044C00009FA03F31343A2460493D2E7039B191D91
:1044D0001B680391002BBBBF5B4242F002020793B3
:1044E0000793B8BF049223782E2B0CD163782A2B24
:1044F00035D1039B02341A1D1B680392002BB8BFF1
:104500004FF0FF330593DFF8D8A0032250462178FF
:1045100000F070FC40B14023A0EB0A0003FA00F069
:10452000049B01340343049314F8011B06222D4815
:104530008DF8281000F05EFC00283FD02A4B1BBBF2
:10454000039B073323F0070308330393099B3B4482
:10455000099367E70C4601200CFB0232A5E7002314
:104560004FF00A0C194601340593204610F8012B30
:10457000303A092A03D9002BC5D00591C3E7044678
:1045800001230CFB0121F0E703AB00932A463046E0
:10459000164B04A9AFF300800746781CD6D16B6E8A
:1045A000D90705D4AB899A0502D4A86DFFF76DFE33
:1045B000AB895B063FF512AF099811E703AB009397
:1045C0002A463046094B04A900F082F8E4E700BF10
:1045D0006C5F00088C5F00084C5F0008AC5F00084F
:1045E000B25F0008B65F0008000000006B430008DF
:1045F0002DE9F047164699468A680B6907469342AB
:10460000B8BF1346336091F843200C46DDF8208094
:104610000AB1013333602368990642BF336802331D
:104620003360256815F0060506D104F1190AE36820
:1046300032689B1AAB4228DC94F84320131E226890
:1046400018BF012392062DD44946384604F143028F
:10465000C047013020D02368E56803F00603042B2F
:1046600018BF002532684FF00006A36808BFAD1AD6
:10467000226908BF25EAE5759342C4BF9B1AED186D
:104680001A34B5421AD1002008E0012352464946A7
:104690003846C047013003D14FF0FF30BDE8F08706
:1046A0000135C4E73020E11881F843005A1C94F822
:1046B00045102244023382F84310C5E70123224605
:1046C00049463846C0470130E6D00136D9E70000F8
:1046D0002DE9FF470F7E9146782F80460C469A467B
:1046E0000C9D01F1430207D8622F0AD8002F00F079
:1046F000D980582F00F0A48004F1420584F842705C
:104700003AE0A7F16303152BF6D801A151F823F085
:10471000694700087D470008F9460008F946000887
:10472000F9460008F94600087D470008F9460008E8
:10473000F9460008F9460008F94600088B480008C9
:10474000AD4700086D480008F9460008F946000822
:10475000AD480008F9460008AD470008F9460008D2
:10476000F9460008754800082B681A1D1B682A6066
:1047700004F1420584F842300123A4E0206829684E
:10478000060601F104030AD50E682B60002E03DA39
:104790002D23764284F843300A235E4819E00E68E0
:1047A00010F0400F2B6018BF36B2EFE72B6820687F
:1047B000191D2960010601D51E6802E04606FBD5D9
:1047C0001E886F2F0CBF08230A235248002184F84B
:1047D00043106568002DA8BF2168A560A4BF21F023
:1047E000040121600EB9002D4DD01546B6FBF3F142
:1047F00003FB1167C75D05F8017D3746BB420E46D6
:10480000F4D9082B0BD12368DE0708D5236961682A
:104810009942DEBF302305F8013C05F1FF35521BFC
:1048200022614B4621464046CDF800A003AAFFF77F
:10483000DFFE01304CD14FF0FF3004B0BDE8F0870F
:10484000344881F845702968236851F8046B296061
:104850001D0614D5DF0744BF43F0200323601EB9B3
:10486000236823F0200323601023AFE7236843F07D
:10487000200323607823284884F84530E3E759066D
:1048800048BFB6B2E6E71546BBE72B682668181D99
:104890006169286035061B6801D5196002E0700661
:1048A000FBD51980002315462361BAE72B68002148
:1048B0001A1D2A601D686268284600F09BFA08B13C
:1048C000401B606063682361002384F84330A8E7DD
:1048D0002A46494640462369D0470130ABD0236879
:1048E0009B0713D4E068039B9842B8BF1846A4E71F
:1048F0000123324649464046D04701309BD001351E
:10490000E36803995B1AAB42F2DCEBE7002504F1A4
:104910001906F5E7BD5F0008CE5F000838B5002333
:10492000054D044608462B6000F084FD431C02D16F
:104930002B6803B1236038BD5408002010B50C4625
:10494000B1F90E1000F0B8FA0028ABBF636DA3896F
:104950001B1823F48053ACBF6365A38110BD2DE900
:10496000F0411F468B890546DB050C46164605D5EA
:1049700002230022B1F90E1000F0C4F9A3893246D7
:1049800023F48053A38128463B46B4F90E10BDE8BA
:10499000F04100F069B810B50C46B1F90E1000F006
:1049A000B1F9431CA38915BF606523F4805343F418
:1049B0008053A38118BFA38110BDB1F90E1000F080
:1049C000D3B80000F8B50E461446054618B1836901
:1049D0000BB9FFF7BBFB214B9C422BD16C68A36941
:1049E000A360A3891A072FD523696BB323692068B5
:1049F000F6B2C01A63693746834204DC2146284672
:104A000000F044F930BBA3680130013BA360236888
:104A10005A1C22601E706369834204D0A389DB079D
:104A200006D50A2E04D12146284600F02FF988B970
:104A30003846F8BD0A4B9C4201D1AC68CFE7094B20
:104A40009C4208BFEC68CAE72146284600F01EF8E1
:104A50000028CBD04FF0FF37EAE700BF6C5F0008BB
:104A60008C5F00084C5F000838B5044608461146C4
:104A70000022054D2A601A4600F0EAFC431C02D1D0
:104A80002B6803B1236038BD54080020324B70B549
:104A90001D6806460C4625B1AB6913B92846FFF7D9
:104AA00055FB2E4B9C420FD16C68A389B4F90C20A6
:104AB00019072CD4DD0611D40923336042F04003DA
:104AC0004FF0FF30A3813EE0254B9C4201D1AC6802
:104AD000EBE7244B9C4208BFEC68E6E7580712D589
:104AE000616B41B104F14403994202D0304600F0B9
:104AF0009BF900236363A38923F02403A38100238C
:104B0000636023692360A38943F00803A3812369B9
:104B10004BB9A38903F42073B3F5007F03D021467A
:104B2000304600F027F9A089B4F90C2010F00103F9
:104B30000AD00023A36063695B42A361236943B980
:104B400010F08000BAD170BD810758BF6369A360BF
:104B5000F4E70020F7E700BFB00000206C5F00081A
:104B60008C5F00084C5F000838B50023054D0446F3
:104B700008462B6000F036FC431C02D12B6803B1C1
:104B8000236038BD540800208A89F8B5054610070F
:104B90000C4657D44B68002B04DC0B6C002B01DC5B
:104BA0000020F8BDE66A002EFAD0002312F48052ED
:104BB0002F682B6032D0606DA3895A0705D56368D2
:104BC000C01A636B0BB1236CC01A00230246E66A5D
:104BD0002846216AB047431CA38906D129681D29AC
:104BE0002CD8294ACA40D60728D5002262602269FB
:104BF000D904226004D5421C01D12B6803B9606539
:104C0000616B2F600029CBD004F14403994202D09C
:104C1000284600F009F900206063C2E7216A0123F9
:104C20002846B047411CC7D12B68002BC4D01D2B90
:104C300001D0162B01D12F60B2E7A38943F04003C6
:104C4000A381AEE70F69002FAAD0930718BF0023F6
:104C50000E6808BF4B69F61B0F608B60002E9FDD4E
:104C600033463A462846216AD4F828C0E04700284F
:104C700006DCA3894FF0FF3043F04003A38190E7A7
:104C80000744361AEAE700BF0100402038B50B6937
:104C900005460C4613B90025284638BD18B183696E
:104CA0000BB9FFF753FA144B9C421BD16C68B4F953
:104CB0000C30002BEFD0626ED00704D4990502D4DB
:104CC000A06DFFF7E1FA28462146FFF75DFF636E0E
:104CD0000546DA07E0D4A3899B05DDD4A06DFFF774
:104CE000D4FAD9E7054B9C4201D1AC68DFE7044B0D
:104CF0009C4208BFEC68DAE76C5F00088C5F000834
:104D00004C5F000838B50446084611460022054DA0
:104D10002A601A4600F07EFB431C02D12B6803B1C7
:104D2000236038BD5408002070B50E46B1F90E104E
:104D3000144600291D4696B008DA0022B6F90C3058
:104D40002A601A0610D44FF480630EE06A4600F021
:104D5000C5F80028F1DB019A02F47042A2F5005375
:104D60005A425A412A60EEE740230020236016B0E1
:104D700070BD00008B8973B59D0706460C4607D5AC
:104D800004F14703236023610123636102B070BD16
:104D90006A4601ABFFF7C8FF009905463046FFF7AA
:104DA00075FA48B9B4F90C309A05EFD423F003032F
:104DB00043F00203A381E3E70D4BB362A3892060B4
:104DC00043F08003A381009B20616361019B5BB181
:104DD0003046B4F90E1000F093F828B1A38923F0FF
:104DE000030343F00103A381A0890543A581CDE717
:104DF000E5400008034610B5C9B202449342184684
:104E000001D1002003E0047801338C42F6D110BDBB
:104E10000148FFF739BA00BF480800200148FFF7F2
:104E200034BA00BF4808002038B50546002940D0F4
:104E300051F8043C0C1F002BB8BFE418FFF7E8FF43
:104E40001C4A136833B9636014602846BDE83840D3
:104E5000FFF7E4BFA34208D9206821188B4201BFA5
:104E600019685B6809182160EDE71A465B680BB1A9
:104E7000A342FAD911685018A0420BD1206801440E
:104E8000501883421160E0D118685B6801441160DA
:104E90005360DAE702D90C232B60D6E7206821188B
:104EA0008B4201BF19685B68091821606360546018
:104EB000CBE738BD4C08002038B5044608461146FB
:104EC0000022054D2A601A4600F0ACFA431C02D1BC
:104ED0002B6803B1236038BD5408002038B5002387
:104EE000064D0446084611462B6000F083FA431C29
:104EF00002D12B6803B1236038BD00BF54080020E5
:104F000038B50023054D044608462B6000F07AFAB8
:104F1000431C02D12B6803B1236038BD5408002024
:104F200000F002B8000000009C462DE9F84F534203
:104F30005F4C13432CF0004949EAD373A3429646D1
:104F400007460E463DD84542054321F0004A4AEA4D
:104F5000D575A54203468B4633D80CF1404505F57F
:104F6000801515433DD04FEAAC7505F002055AEAAD
:104F7000030345EAD1752CD059EA020335D0A14587
:104F800046D0A24531D0AAEB0909B9F1747F4FEAA6
:104F9000295339DABCF1000F46DA3C3344DA0020F9
:104FA0000021012D58D0022D49D085B134A3D3E979
:104FB0000023FBF7D1F834A3D3E90023FBF7CCF8A7
:104FC00005E03A46704661463346FBF7C7F8BDE850
:104FD000F88F022D10D0032DF9D12DA1D1E90001B8
:104FE000F5E7BDE8F84F00F06BB8BBF1000F07DB49
:104FF00029A1D1E90001EAE723A1D1E90001E6E70F
:1050000027A1D1E90001E2E723A1D1E90001C8E726
:10501000CA4505F1FF3523D0022D29D8254B03EBD6
:10502000C505D5E90001D2E77246634638463146E8
:10503000FBF774FB00F0D2F900F042F8B1E710A3DF
:10504000D3E90023FBF788F802460B460EA1D1E90D
:105050000001FBF781F8BAE701F100431946B6E712
:10506000022D08D8144B03EBC505D5E90001AEE7C6
:1050700000200021ABE70CA1D1E90001A7E700BFA8
:10508000075C143326A6A13C182D4454FB2109408B
:10509000182D4454FB2109C0182D4454FB21F93F1D
:1050A000182D4454FB21F9BF182D4454FB21E93F2E
:1050B0000000F07FF85F0008E05F000800000000DB
:1050C0002DE9F84FB84F21F00046BE4204460D4688
:1050D0008A461CDDB54B9E420DDC0AD0B44BB54A66
:1050E000B54CBAF1000FD8BF134620461946BDE8AB
:1050F000F88F0028F2D022462B4620462946FBF79F
:105100002DF804460B4620461946BDE8F88FAB4BF8
:105110009E4200F3B080A3F1DE739E4240F39D8077
:105120004FF0FF3B22462B4620462946FBF7CCF9A1
:1051300002460B4680468946FBF7C6F982A3D3E9AF
:10514000002306460F46FBF7BFF981A3D3E90023EE
:10515000FBF704F832463B46FBF7B6F97EA3D3E9EA
:105160000023FAF7FBFF32463B46FBF7ADF97CA381
:10517000D3E90023FAF7F2FF32463B46FBF7A4F9E6
:1051800079A3D3E90023FAF7E9FF32463B46FBF760
:105190009BF977A3D3E90023FAF7E0FF42464B4699
:1051A000FBF792F974A3D3E9002380468946304681
:1051B0003946FBF789F972A3D3E90023FAF7CCFF4C
:1051C00032463B46FBF780F96FA3D3E90023FAF799
:1051D000C3FF32463B46FBF777F96DA3D3E90023C3
:1051E000FAF7BAFF32463B46FBF76EF96AA3D3E9FA
:1051F0000023FAF7B1FF32463B46FBF765F9BBF1F6
:10520000FF3F02460B464046494653D0FAF7A6FFF9
:105210006B4E22462B46FBF757F96A4B06EBCB0643
:105220004FEACB0B9B44DBE90023FAF795FF2246BC
:105230002B46FAF791FF0B460246D6E90001FAF732
:105240008BFFBAF1000F04460B46BFF64EAF01F1DB
:10525000004320461946BDE8F88F51A3D3E9002347
:10526000FAF77CFF0022584BFBF7BEFB00283FF407
:1052700057AF2B4639E700F0B1F8544B04469E4235
:105280000D4629DCA3F550239E4250DC02460B4616
:10529000FAF764FF00224C4BFAF75EFF02460B461A
:1052A0002046294614461D464FF0000B00224FF0C1
:1052B000804326E0FAF752FF22462B46FBF704F91B
:1052C00002460B4620462946FAF746FF04460B469F
:1052D00020461946BDE8F88F3D4B9E421CDA00225D
:1052E0003C4BFAF739FF02460B4620462946144646
:1052F0001D460022374B4FF0020BFBF7E5F800226A
:10530000314BFAF72BFF02460B4620462946FBF7A6
:1053100005FA04460D4605E702460B4600202E49D5
:10532000FBF7FCF94FF0030B04460D46FAE60022AA
:10533000254BFAF711FF02460B46204629464FF04F
:10534000010B14461D46DAE711DA22E33AAD903F2D
:10535000EB0D76244B7BA93F513DD0A0660DB13FAC
:105360006E204CC5CD45B73FFF8300922449C23F14
:105370000D5555555555D53F2F6C6A2C44B4A2BFD9
:105380009AFDDE522DDEAD3F6D9A74AFF2B0B33FA1
:10539000711623FEC671BC3FC4EB98999999C93F19
:1053A0009C7500883CE4377EFFFF0F440000F07FCF
:1053B000FB21F93FFB21F9BF182D4454FFFFDB3FD0
:1053C00010600008306000080000F03FFFFFF23F6F
:1053D000008003400000F83F0000F0BF21F00041D2
:1053E000704700BF5822024B4FF0FF301A607047E1
:1053F000540800205822024B4FF0FF301A607047CB
:10540000540800205822024B00201A60704700BF49
:10541000540800205822024B4FF0FF301A607047AA
:10542000540800205822024B4FF0FF301A6070479A
:1054300054080020044A05491368002B08BF0B4696
:105440001844106018467047580800206008002073
:105450005822024B4FF0FF301A607047540800206A
:10546000F8B500BFF8BC08BC9E467047F8B500BF51
:08547000F8BC08BC9E46704721
:105478002000000002030405060708090A0B0C0DAA
:105488000E0F1010000000000000000000000000D7
:1054980001020304060708090000000001020304D2
:1054A800E695B0E68DAEE6BAA2E587BA0000000040
:1054B800436F756C64206E6F7420636F6E6E6563E6
:1054C8007420746F204D505536303530200A0D0049
:1054D80000000000000000000000000000000000C4
:1054E8003F40000000000000000030004000300095
:1054F8004000000009000BC03D000BC03D00090042
:1055080018C024407FE0224031800000180024C0E9
:105518001B000D803240018003801C4027401C8006
:10552800074000401000600000000000000000007C
:105538000000000000001F802040402000004020A4
:1055480020401F8000000000090006001F800600A0
:1055580009000000040004003F800400040000006B
:1055680000100060000000000000000004000400BB
:1055780004000400040000000000004000000000D7
:1055880000000000002001C00600380040000000B4
:105598001F802040204020401F8000000000104055
:1055A8003FC000400000000018C0214022402440B5
:1055B8001840000010802040244024401B80000038
:1055C80002000D0011003FC0014000003C80244053
:1055D80024402440238000001F802440244034407D
:1055E800038000003000200027C0380020000000A1
:1055F8001B802440244024401B8000001C0022C043
:10560800224022401F8000000000000008400000E7
:10561800000000000000000004600000000000001E
:10562800000004000A001100208040400900090021
:105638000900090009000000000040402080110016
:105648000A0004001800200023402400180000006D
:105658001F802040274029401F400000004007C00D
:1056680039000F0001C0004020403FC024402440C2
:105678001B8000001F802040204020403080000018
:1056880020403FC0204020401F80000020403FC0F5
:1056980024402E4030C0000020403FC024402E004F
:1056A800300000000F0010802040224033800200AC
:1056B80020403FC0040004003FC02040204020405C
:1056C8003FC02040204000000060202020203FC034
:1056D8002000200020403FC024400B0030C0204064
:1056E80020403FC020400040004000C03FC03C0078
:1056F80003C03C003FC0000020403FC00C402300D6
:105708003FC020001F802040204020401F80000014
:1057180020403FC024402400180000001F80214082
:10572800214020E01FA0000020403FC02440260068
:1057380019C0004018C02440244022403180000095
:10574800300020403FC020403000000020003F8053
:10575800004000403F80200020003E0001C00700BC
:1057680038002000380007C03C0007C0380000009F
:10577800204039C0060039C02040000020003840D1
:1057880007C0384020000000304021C02640384083
:1057980020C00000000000007FE040204020000002
:1057A800000070000C000380004000000000402052
:1057B80040207FE0000000000000200040002000A2
:1057C8000000000000100010001000100010001071
:1057D80000000000400000000000000000000280FF
:1057E8000540054003C0004020003FC0044004407D
:1057F80003800000000003800440044006400000CD
:1058080000000380044024403FC0004000000380A3
:105818000540054003400000000004401FC024402C
:1058280024402000000002E00550055006500420E6
:1058380020403FC00440040003C000400000044072
:1058480027C000400000000000100010041027E0EE
:105858000000000020403FC00140070004C0044091
:10586800204020403FC000400040000007C0040026
:1058780007C0040003C00000044007C0044004003F
:1058880003C000400000038004400440038000007F
:10589800041007F004500440038000000000038057
:1058A8000440045007F00010044007C00240040000
:1058B80004000000000006400540054004C0000048
:1058C800000004001F80044000400000040007801E
:1058D8000040044007C000400400070004C00180E5
:1058E80006000400060001C0070001C00600000011
:1058F800044006C0010006C0044000000410071060
:1059080004E00180060004000000044005C00640D1
:10591800044000000000000004007BE0402000007C
:10592800000000000000FFF0000000000000402020
:105938007BE00400000000004000800040002000E0
:1059480020004000000000000000000000000000EF
:10595800000000000000000000001FCC000C000048
:10596800000000000000080030006000080030005F
:1059780060000000022003FC1E20022003FC1E2001
:105988000220000000000E1811043FFF10840C785C
:10599800000000000F0010840F3800C0077818843A
:1059A8000078000000780F8410C411240E9800E4D9
:1059B8000084000808006800700000000000000073
:1059C8000000000000000000000007E01818200494
:1059D80040020000000040022004181807E0000000
:1059E800000000000240024001800FF001800240E8
:1059F800024000000080008000800FF800800080D6
:105A0800008000000001000D000E000000000000F2
:105A180000000000000000800080008000800080FE
:105A2800008000800000000C000C00000000000056
:105A38000000000000000006001800600180060059
:105A480018002000000007F00808100410040808D7
:105A580007F000000000080408041FFC000400040C
:105A68000000000000000E0C1014102410441184D3
:105A78000E0C000000000C18100411041104128808
:105A88000C700000000000E00320042408241FFC20
:105A98000024000000001F981084110411041088CD
:105AA80010700000000007F008881104110418881D
:105AB8000070000000001C00100010FC13001C0007
:105AC8001000000000000E381144108410841144A6
